:020000040800F2
:10000000F0FF00109D820608250A0608950F0208D9
:100010003D8306083D8306083D8306080000000076
:10002000000000000000000000000000290A06088F
:100030002D0A060800000000310A0608C1BA0108AE
:100040003D8306083D8306083D8306083D83060878
:100050003D8306083D8306087DB0000885B0000892
:100060008DB0000895B000089DB0000849AD0008AB
:100070005DAD000871AD000885AD000899AD0008C0
:10008000ADAD0008C1AD00083D8306083D830608FC
:100090003D8306083D8306083D830608A5B0000899
:1000A00049C80008A9C7000859C8000899C700082E
:1000B000D1C70008E1C70008F1C7000831A4000853
:1000C00055BD000839A4000859BD00083D83060845
:1000D0003D830608F5B30108F9B40108FDB5010830
:1000E000ADB000083D8306089D39060869C80008C0
:1000F00021C8000879C8000811C80008D5AD00085B
:100100003D8306083D83060801C800083D830608B4
:1001100001B7010805B801082DDD000861DD000800
:10012000E9AD0008FDAD000811AE000825AE0008DD
:1001300039AE00083D8306083D8306083D83060866
:100140003D8306083D8306083D830608350A0608F8
:100150004DAE000861AE000875AE000809B901088F
:1001600041A400085DBD00083D8306083D830608E4
:100170003D8306083D8306083D8306083D83060847
:080180003D8306083D830608DB
:10800000074BD0F8E4105B68D0F8F0205B1A9A4276
:10801000B8BFC0F8F030012380F81C310020704751
:10802000001000E0B74B00EB800270B503EBC20418
:1080300053F832205268B2F814C01CF0010F4FEA16
:1080400080016AD15FFA8CFE1EF0020F3DD0BFF3B3
:108050005F8F257F012D5FFA85FC00F0CC80148BAB
:10806000BFF35F8F0C1803EBC404257F022D00F0D3
:10807000E3800C1803EBC404257F032D06D1A47FF5
:1080800024B193F87940002C40F0E5809488A4B2A4
:1080900044F48064948093F978C001EB000E03EB04
:1080A000CE0E9EF81CE00EF1010EE6450CD1002428
:1080B00083F8794093F87A40002C40F0B680084469
:1080C00003EBC00300225A7670BD1EF0040F5BD193
:1080D0001EF0400E00F0C880158A93F978C0666AD9
:1080E000EDB206F80C505FFA8CFE267F0EF101040B
:1080F00064B2E51CAE4283F87840A44600F02A81C1
:108100000D1803EBC5052D7FAC42C6D10EF1020C54
:108110004FFA8CFC83F878C0BFE7B2F800C02CF4AB
:10812000006C4FEA0C4C4FEA1C4CA2F800C0B2F8AD
:1081300000C01FFA8CFC4CF4806CA2F800C0A57F34
:108140004FF0000C83F878C0002D46D093F879509A
:10815000002D3FD0012483F879400C1803EBC404B0
:10816000247F022C04D11488A4B244F40064148047
:108170000C1803EBC404A47E44F0010414820844E8
:1081800003EBC0031B7F70BDA57F4FF0010C83F88C
:108190007AC0002D6FD093F87950002D70D10C1853
:1081A00003EBC404647F002C00F0AE80148893F8C5
:1081B00078C0A4B244F400740CF1010C14804FFA9E
:1081C0008CF483F87840B2F800C01CF4807FFAD1B8
:1081D000A44662E7E47EFF2CBCD00C1803EBC40479
:1081E000A57E05F0FE051582E27EFF2AC7D0FF229C
:1081F00083F87820C3E7A47F002C3FF430AF93F8D6
:108200007940002C3FF42BAF148824F480642404BC
:10821000240C1480BFF35F8F148B148883F87AC00A
:10822000A4B244F40074148030E7948824F44074B9
:108230002404240C948042E7A47F002C3FF419AF5F
:1082400093F87940002C3FF414AF148824F4806430
:108250002404240C1480948824F480642404240CC2
:10826000948093F978C018E71FFA8CF52D0631D465
:1082700093F978C011E793F87940002C8FD095E7F7
:10828000257F022D15884AD925F480652D042D0CF3
:108290001580158A666A93F978C0EDB206F80C501D
:1082A000666A1488A4B244F4007414805FFA8CFCEB
:1082B000158A0CF1010464B2EDB2355595880CF1C4
:1082C000020CADB24FFA8CF445F4806583F8784027
:1082D000958078E793F978506E1C42D0266A765DD7
:1082E0001682247F05F1010C4FFA8CFC644583F85B
:1082F00078C07FF4D2AE948824F480642404240CE3
:108300009480CAE6381A00201488A4B244F4807419
:108310001480012483F8794093F9784053E7ADB293
:1083200045F400751580158A666A93F978C0EDB238
:1083300006F80C505FFA8CFC666A158A0CF1010491
:1083400064B2EDB20CF1030C35554FFA8CF483F89E
:10835000784038E7958825F480652D042D0C9580AC
:10836000CEE6E57E1582A57F83F878E01DB9247FEF
:10837000002C7FF404AF948824F480642404240C3B
:108380009480FCE61B4B01681B4A03F5727C03E0FA
:1083900063452CD053F82C2F9142F9D170B593F846
:1083A00004E0427996450AD0634505D053F82C2F56
:1083B0009142F4D06345F9D14FF0FF3070BD9E4635
:1083C0008468DEF80C50A5424FF0000208D001325C
:1083D000032A0EF10C0EE7D0DEF80C50A542F6D1C0
:1083E000DEF81050C668B542F1D150B270BD4FF002
:1083F000FF307047389E06080000014030B5EAB1F2
:108400008E464FEA014C034600F1C005002419686E
:108410009A6841EA0C0142EA0E029A60C3E900142C
:108420000C33AB42F3D1D0F8C030C0F8C44043EABB
:108430000E03C0F8C030C0F8C84030BD4FEA014E4E
:108440008C46E0E783691969B3F80CC00A6830B458
:108450009C6822F0010224680A60A28992B222EA92
:108460000C02A281027D04681F2A06D96568203AA1
:1084700008209040284245D0FEE72568082090401B
:108480002842F9D1202000FA02F2A260264A12788E
:10849000002A35D01A7E012A39D0D3F8F4200132CF
:1084A000C3F8F420EFF31181502282F31288586848
:1084B0005C6C026822EA04029C6C2243C9B202602E
:1084C00081F31188D3E90C401A6999681D6C096819
:1084D00014605061D3E90E40546090600024B3F8FA
:1084E000A800D5604C62C862106801242043106067
:1084F0001C7683F8F1408A899B8913439BB28B8158
:1085000030BC7047202000FA02F2E260BEE7002291
:1085100083F8F120D3F8F8000A68013022F0010254
:10852000C3F8F8000A60EBE70400001010B40C4C2C
:108530006368002B11DD002004F1080C0146DCF813
:10854000A03003F1C00259600C339342FBD1636841
:10855000013083420CF5807CF1DC5DF8044B704700
:1085600004000010F0B5494C04EB401C9CF8242496
:1085700002B9F0BD464B4FF08C0E0EFB003E93F857
:10858000DC6493F8DD249EF87E708CF80A749642C1
:108590004FF0000C4FEA40158EF87EC00ED002EB73
:1085A000420C03EBCC0C57009CF8E0C40CF1FF3EEE
:1085B000BEF1010F5CD9BCF1030F53D06019A0F8D4
:1085C0000814EFF31182902383F3128890F80A3491
:1085D000B0F8081443EA41030021D2B29BB280F8FC
:1085E0000A1482F311881A09217882EA13225A4068
:1085F000D9B1D0F82044D0F80C14D4F8A040D2431C
:108600001B019BB202F00F0201208840134304F1CA
:10861000C0015A0013F4004F93B202D162680243C2
:1086200062600C348C42F4D1F0BDD0F82014D0F844
:108630000C04D1F8A0401B0100F110019BB202F024
:108640000F0201208840134304F1C0015A0013F4C3
:10865000004F93B202D16268024362600C34A142BF
:10866000F4D1F0BD02F1010C0CF0030CB445A5D01F
:108670003A4403EBC202131893F8ED1400299DD07D
:108680006319012283F80A2498E700BF0400001050
:10869000381A0020704700BF024B03EB401090F8DF
:1086A00025047047040000104368B0F8502010B44F
:1086B0001A83EFF31182502383F312884168446CCC
:1086C0000B6823EA0403C46C2343D2B20B6082F329
:1086D0001188D0E907418268036912681C605961FA
:1086E000D0E909415C60C46A9960B0F86010DC6050
:1086F0000023D1625DF8044B0376704710B4037D0C
:1087000001681F2B09D94C68203B202202FA03F391
:108710001C4215D15DF8044B70470C68202202FA08
:1087200003F31C42F6D00D4A4068002482F840450D
:1087300002685DF8044B22F0010202608B60704712
:10874000064A4068002482F8404502685DF8044B00
:1087500022F001020260CB60704700BF381A00208F
:10876000704700BF0B4890F83C1589B101EB4101FF
:10877000002310B4490000F244501C4650F8232056
:10878000063302B114608B42F8D15DF8044B704798
:10879000704700BF040000100B4890F83C1589B1E9
:1087A00001EB4101002310B4490000F244501C4683
:1087B00050F82320063302B114609942F8D15DF8D5
:1087C000044B7047704700BF040000100120704741
:1087D000034B00EB400003EBC00090F855057047D9
:1087E000040000101F4890F83C35002B39D00022BF
:1087F0002DE9F04300F244531B4E1C4D4FF0500E38
:108800004FF02C0C144607E053F8181B0C6090F83E
:108810003C150132914222DD197C0029F4D05F68B9
:10882000B90AA1F5801105EB010952294FF0FE08A4
:1088300098BF99F8F483EFF311898EF31288796A5F
:108840000CFB08680131C8F86C15B98A89B241F08F
:1088500001015FFA89F8B98288F31188D4E7BDE88D
:10886000F083704704000010381A0020389E060874
:1088700007EE900AB8EE670A704700BFBCEEC00A68
:1088800010EE103A98B270470D4B0E49DB68DB438F
:10889000C3F30223C3F104030122DBB202FA03F3A0
:1088A00001EB000C1B0103F0F0038CF800334309CB
:1088B00000F01F0002FA00F041F82300704700BFEB
:1088C00000ED00E000E100E0037D1F2B08D9026805
:1088D000203B5168202202FA03F3194214D1704759
:1088E00001682022096802FA03F31942F7D00D4A01
:1088F00041684FF0000C82F8ACC70A68006822F0AB
:1089000001020A6083607047064A41684FF0000C1C
:1089100082F8ACC70A68006822F001020A60C360EE
:10892000704700BF381A0020122301480B8070479F
:1089300088010020042301480B8070479C0100201F
:108940002048D0F8E837D0F8EC2730B59B184FF026
:108950001A040C8001D11C4830BD1B4AD0F8EA171C
:108960004FF0000E10467546B3F1204F4FEA137CCE
:108970000CF130040EF1020E2ABF0CF1370C84709A
:1089800080F802C0BEF1100FC5704FEA031300F16A
:108990000200E9D100200446B1F1204F4FEA1173E3
:1089A00003F1300C00F102002ABF373382F812C005
:1089B00093740828D4744FEA011102F10202EBD13A
:1089C000014830BD00F0FF1FA0010020B4228280CA
:1089D0002E224FF4A57C4FF4EB7102814FF4877285
:1089E0000023A0F802C0C1804FF4E17C962182816F
:1089F00044220370A0F80AC0C181028243827047FA
:108A000082B01F4B002201920193019B1D4A043347
:108A10000193019B1968936803F00C03042B07D0A2
:108A2000082B0AD0184B194AC3F8B02702B0704778
:108A3000154BC3F8B01702B070475368506813F471
:108A4000800F00F03F00536813D1C3F388130F4920
:108A5000B1FBF0F101FB03F30A4A0B495268C2F380
:108A6000014201325200B3FBF2F3C1F8B03702B059
:108A70007047C3F38813B1FBF0F101FB03F3EBE79D
:108A80005028004000380240381A00200024F4002A
:108A900038B5074BD3F8B4371B6A14460D469847D0
:108AA0004FF4007302682A600020236038BD00BFC5
:108AB000381A002008B5074BD3F8B43733B15B69D7
:108AC000984780F00100404240B208BD4FF0FF30AF
:108AD00008BD00BF381A0020002070472DE9F04182
:108AE00023B3164D164688469F18D5F8B447002381
:108AF000A4681A4641463046A0470028F5D0D5F86C
:108B0000B43733B15B69984720B9D5F8B437002B37
:108B1000F8D1FEE70136B74208F50078E5D1D5F87F
:108B2000B837C5F8BC370020BDE8F081034DD5F853
:108B3000B837C5F8BC370020BDE8F081381A0020EE
:108B40002DE9F0415BB31A4C16460F4603EB0208C1
:108B500004E0D4F8B41719B14B699847D4F8B417A6
:108B60000D6900231A4639463046A8470028F0D13F
:108B7000D4F8B43733B15B69984720B9D4F8B43727
:108B8000002BF8D1FEE70136B04507F50077E5D1B7
:108B9000D4F8B837C4F8BC370020BDE8F081044CE5
:108BA000D4F8B837C4F8BC370020BDE8F08100BF66
:108BB000381A002000207047034B93F8E407003870
:108BC00018BF0120704700BF381A0020826D136A59
:108BD0005B681B78FF2B08D090F8F030013BDBB2CC
:108BE00080F8F0301BB10120704700207047126AF6
:108BF0005268022013707047836D1B6A5B681B7894
:108C0000FF2B0AD190F8F030002B03F1FF3280F8EF
:108C1000F02014BF0120022070470020704700BFE1
:108C200010B5124C12498CB0002384460DF1070098
:108C30000122CDE90230069104F6180002A904923F
:108C40008DF82820CDE907338DF8143009930B9364
:108C500084F8B0C811F0DCFAD4F81828136A002B95
:108C6000FCD19DF807000CB010BD00BF381A0020E1
:108C7000F98B000870B5054690B008200C46FFF748
:108C8000CFFFFF2826D0FE2802D0022010B070BDF2
:108C9000124E039400230220CDE90730012201A9DE
:108CA00006F61800CDE90135CDE90533CDE90A33E3
:108CB000CDE90C338DF810308DF824300F938DF8FA
:108CC000382011F0A5FAD6F81838186A0028FCD117
:108CD00010B070BD012010B070BD00BF381A002068
:108CE00030B51E4D91B00023FD200DF1030101228E
:108CF000CDE905318DF8030001A905F61800CDE98D
:108D00000133CDE90732CDE90A33CDE90C33C5F89B
:108D1000E0378DF810308DF824300F9303928DF8E2
:108D2000382011F075FAD5F818381C6A002CFCD1DF
:108D30000120FFF775FFFF2809D0D5F8B837C5F82F
:108D4000D4370922204685F8E42711B030BD04232A
:108D5000022085F8E43711B030BD00BF381A00207A
:108D6000034B93F8E407032894BF002001207047C9
:108D7000381A0020004870472022002030B4194BD8
:108D800000209C7B14B11D688D4206D001300B2859
:108D900003F11003F5D130BC70479AB1124B03EBCD
:108DA00040218A4219D0114B93F8E4278AB1104B25
:108DB00001225A7000F5B17003EB0010012383719A
:108DC00030BC70470A4B00F5B17003EB00108271A4
:108DD000E1E7012283F8E427E9E7022CE3D1183B1D
:108DE000E8E700BF38530020383D0020204D002028
:108DF000203D002030B41D4C002384F8D03604F50B
:108E0000C36004E001330B2B00F1100015D005689E
:108E10008D42F7D190F80EC0BCF1030FF2D1C2B170
:108E2000134901EB4320824209D1A1F1180203F555
:108E3000B17302EB031301229A7130BC704794F8AE
:108E4000E42712B9012284F8E4270A4A012151706B
:108E5000EDE70849D4F8CC2603F5B17301EB031311
:108E6000013204219971C4F8CC26E6E7204D002098
:108E7000383D0020203D0020A8B183681BB10E4B77
:108E800007229A7070470C4A1178D36003294FF07B
:108E900004000CBF80214FF48071C2E901111361FD
:108EA000137590707047044A02F580510123537086
:108EB00081F8E437704700BF203D002010B5164C04
:108EC000D4F814386BB11A689B88116994F811288A
:108ED0000B4022B12BB1002384F8E43710BD002BE6
:108EE000F9D094F8E437032B0FD894F8D83701332E
:108EF000DBB2072B84F8D837EDD8D4F8B827C4F8FC
:108F0000D427012384F8E43710BD044811F05CFA3B
:108F1000A4F81C08E9E700BF381A0020801A0600F0
:108F200070B5224B93F8DC2493F8DD349A4237D1A4
:108F30001F4D95F80436E3B195F808461D4B002007
:108F400040F20D3CB4B19A6899895160166819686D
:108F500046F001061660A1F848C08A8992B242F430
:108F600080728A8195F804260130824203F1180349
:108F7000E8DC70BD1A68118821F080010904090C31
:108F800011809988D162118889B241F080011180E5
:108F90005462998A9689314389B291819C82E1E732
:108FA0005CF0C2FC0028C3D170BD00BF381A00209D
:108FB00004000010EC2200202DE9F0411E4B93F834
:108FC000DC2493F8DD349A422FD11C4F7D68002DAC
:108FD00012DD3846002410F8086BA046013416B1A3
:108FE000037E012B1CD002691368AC4243F00103DD
:108FF00000F580701360F1D112F0ACFDD7F80C468B
:10900000002C0BDD0E4A02EBC4041168938888899A
:10901000083203439BB294428B81F6D1BDE8F081C4
:1090200080F8F080FFF740FBDDE75CF07DFC002876
:10903000CBD1BDE8F08100BF381A00200400001039
:10904000140600102DE9F04F037D02681F2B83B03A
:10905000044609D95068A3F120052021A940014206
:1090600007D103B0BDE8F08F10682021994001427C
:10907000F7D05149514D4968C5F8301695F8081692
:10908000A7694F4E19BB8C2101FB0761D1F8840001
:10909000D1F8FCE0D0F800C0DEF80000B1F888801C
:1090A00020F00100CEF80000BCF80C1089B221EAD3
:1090B0000801ACF80C10297801BB1F2B6FD9A3F164
:1090C000200120238B40D36003B0BDE8F08F8C21BA
:1090D00001FB0761D1F88410D1F810C00868DCF8F2
:1090E000001021F00101CCF80010818921F4807179
:1090F0000904090C818129780029DED04FF08C0801
:1091000008FB07F806EB08032E49D3F8FCA0D3F8B8
:1091100084200193504608F11809D2F800B0894420
:1091200057F050F9019BD5F838262649012083F8DD
:10913000D000002A3AD0BBF800309BB243F0800345
:10914000ABF8003008F174084FF0FF334144CBF81E
:109150002C30584657F034FB8C2303FB0766002362
:109160004946C6F8A030504657F0C2F9D6F8FC3050
:1091700016225A601A6842F001021A60D6F884205A
:10918000B6F88830126891890B439BB293810A49E3
:10919000237D49682268C5F834161F2B8FD82021FB
:1091A00001FA03F3936003B0BDE8F08F12F0D2FC34
:1091B0000449C5F83806BEE7001000E004000010BE
:1091C000381A0020B41A00202DE9F04112F0C2FC38
:1091D0001F4F204E05464FF000087C68002C2ADD0A
:1091E00000231A4607EB0321013391F8F9109C4242
:1091F00042EA0102F6D142EA0804E4B290467368FA
:10920000C3F30803A3B9EFF311838BB916F096FFEC
:10921000431BB3F5FA6F02DCB8F1000FDDD124B1C6
:109220000D4B93F87429542A09D02046BDE8F081EB
:1092300012F064FCECE744464FF00008DFE7B3F8B7
:109240007C290132A3F87C292046BDE8F08100BFCB
:109250000400001000ED00E0381A0020BA4B1B7823
:109260000BB9012070472DE9F04FB84DB849D5F83A
:10927000B827B84BA1FB02125209A3FB023A4FEAEE
:10928000DA0A0AEB8A0AA2EB4A0A85B0AE4A5FFA0A
:109290008AF3039302F61C1302F23C670193002346
:1092A00007EB8A0A02F581699846A74BD3F8243A5E
:1092B000434540F31481D9F81830D9F80460D3E954
:1092C0003A34029312F046FC029B95F874C902905E
:1092D0004FEA860E95F888090EF1085E04F1806168
:1092E0000EEB431E3939BCF1540F0EEB81110EEB1E
:1092F000801301D1A5F87E09994240F266811A686F
:10930000002A00F05A811A6C002A00F06C81D3F810
:109310008020002A00F06981D3F8C02003F5807313
:10932000002AE9D1A3EB0E0E99424FEAAE1E40F29D
:109330004C81A4EB0E0145294FF0000428BF4521C4
:1093400003EB81119B46204626460DE01A6C002A4D
:1093500040F0CD80D3F88020002A40F0F380D3F88D
:10936000C02003F580732AB9994206D91A68002AE9
:10937000ECD04033994200F2BE80112E344640F2C8
:109380002881D6F1150200F124817349029E4B6BAE
:109390009E45D5F88C3938BFC1F834E0F11A002960
:1093A00017DB03F5F42303F590739E4288BF029BFD
:1093B000694988BF0533C5F88C39674B5B6B052B52
:1093C00086BF053BDBB2002385F888394FF0FF33B9
:1093D0004B6342B100FA02F2C4F11404012000FA16
:1093E00004F444EA02005D4BC0F3C43203EB820292
:1093F000D2F8481400F01F0203EB8202D2F848248E
:1094000042EA0131C0F3441203EB8202C0F384202C
:1094100003EB8000D2F8483441EA0311D0F8483415
:1094200041EA032181EA112383EA131303F00F03B6
:109430000F2B40F0B080B1F5803F80F0AC80BCF1E4
:10944000540F4FEA111104D1B5F878390133A5F85A
:1094500078393D4AD2F82439B1F5606F03F1010340
:10946000C2F8243900F0D380019B998197F85830D5
:109470000398834210D0DAF808203B689B1A3B60BF
:10948000DAF830207B689B1A7B600023CAF808302A
:10949000CAF8303087F858003B6801333B60DAF88F
:1094A00008300133CAF808304FF6FF73994207D1EC
:1094B0007B6801337B60DAF830300133CAF8303032
:1094C000019B08F101081433B8F1080F07F15C079C
:1094D0000AF15C0A019309F120097FF4E6AE1A4A09
:1094E0000123012082F8203A05B0BDE8F08F8033D7
:1094F00099427FF642AF5A469A1A9211541C184A62
:1095000082FB04B2A2EBE472012AB8BF01229040B0
:1095100001241644013A04FA02F210431C46226860
:1095200002B3226C002A62D0D4F88020002A60D0D6
:10953000D4F8C02004F58074AAB1A142EFD89B46AC
:10954000234611E7C03315E704000010381A002045
:109550001F85EB51CDCCCCCC88010020389E06086D
:10956000565555554034A142E9D9E31A9B115A1C6E
:109570002F4B83FB02B3A3EBE273012BB8BF012394
:1095800098401E440122013B02FA03F3184323468C
:109590009B462346E8E6BCF1540F2CD0254AD2F86E
:1095A00024390133C2F82439224AD2F82039013350
:1095B000C2F820394FF6FF7158E74033A3EB0E0E87
:1095C00099424FEAAE1E3FF6B4AE10B1013885F8AD
:1095D0008809BCF1540F7FF473AFB5F87A390133C1
:1095E000A5F87A396CE780339CE6C0339AE680347C
:1095F000B9E7C034B7E7B5F878390E4A0133A5F8B2
:109600007839D2F824390133C2F82439CCE795F8F7
:10961000DD3403EB430305EBC303434493F8ED341C
:109620000D2B7FF421AF019A802393771EE700BFB3
:10963000565555550400001010B504465FF0BCFDAA
:1096400081B22046BDE81040FEF78CBF38B50B4D07
:1096500000EB400005F2445303EBC00393ED027AA4
:10966000D3ED037AE7EE007AC4002C44B0EE670A2B
:109670005FF0A2FDD4F84435186038BD0400001036
:109680000C4AF8B5136855692B4003EA000555618B
:109690007DB1094F0126B5FA85F4C4F11F0407EB2B
:1096A000840306FA04F4D3F8900903689847A543A5
:1096B000F1D1F8BD003C0140381A0020038A2DE9A1
:1096C000F047B0F80C901FFA89F919EA03092BD07A
:1096D00005460E464FF000474FF00008B9FA89F3EF
:1096E00027FA03F2D24391B21B3B298209EA02090D
:1096F000042B16D8DFE803F0352C231A0300B36AD5
:10970000002B37D003F1FF3A1FFA8AFAC6F82880F7
:10971000746A34B123682046514698476468002C27
:10972000F8D1B9F1000FD9D1BDE8F0877068696B45
:10973000036889B29847B9F1000FCFD1F4E7B06858
:10974000A96B036889B29847B9F1000FC6D1EBE75E
:10975000F068E96B036889B29847B9F1000FBDD191
:10976000E2E73069296C036889B29847B9F1000FC4
:10977000B4D1D9E7E96A1FFA81FAC9E70A4608B500
:10978000054920B9054857F0DFF8034808BD0448EB
:1097900057F0DAF8004808BD08240020E01D07084B
:1097A000081E070810B5044C04480A46214657F025
:1097B000CBF8204610BD00BF08240020301E07084B
:1097C00010B5044C04480A46214657F0BDF820461F
:1097D00010BD00BF08240020441E070810B5044C2B
:1097E00004480A46214657F0AFF8204610BD00BF96
:1097F00008240020501E070810B5104CD4F8D02AB9
:1098000094F8CF3A2AB103F001039BB91368928808
:109810001A835BF0D3FA02E05B69984720B9D4F869
:10982000B437002BF8D1FEE7D4F8B837C4F8BC370A
:10983000002010BD136892885A83EAE7381A002086
:1098400010B592B00A0E04468DF805200A0A0023CE
:10985000080C44F0400C8DF807200122CDE90733B5
:10986000CDE90D338DF804C08DF806004FF0950C4E
:1098700017488DF8081004938DF818300A928DF867
:109880002C300F938DF84020119301A906220DF181
:1098900003038DF809C00C900391059209935BF0C6
:1098A0005DFA00B98CB90B4C082303A904F6180023
:1098B00084F8B03810F0ACFCD4F81828136A002BE8
:1098C000FCD19DF8030012B010BDFF2012B010BDF6
:1098D000F98B0008381A00202DE9F041324C05467A
:1098E000884617461E4694F8E407042839D008280D
:1098F00007D1D4F8DC37AB4206D0FFF7F1F90228E4
:10990000F1D00120BDE8F081FC23D4F8182884F8B8
:10991000DC3A117B254BC3F8608051B1526942B1EA
:1099200094F8A028002A0CBF4FF480724FF4007204
:1099300001E04FF480729A661D491E4810F068FCE1
:1099400001220623C4F8C087C4F8C457C4F8CC77F2
:10995000C4F8D06784F8C82784F8E4370020BDE84D
:10996000F08194F8DA3753B969021820FFF768FFDD
:1099700038B994F8E437082BC6D0FE23C5E729464A
:10998000F3E7D4F81828136A002BFCD10A2016F04C
:10999000F7FBD4F8203813B11A689B881383FFF7BC
:1099A0008DFA0320AEE700BF381A0020880100209E
:1099B000C00100205022002070B5234E96F8E437F5
:1099C000042B05460C4609D0082B21D1D6F8DC37EC
:1099D000834237D0FFF784F9022819D100213720BC
:1099E000FFF72EFF21461720FFF72AFFC0B996F890
:1099F000DA377BB969021920FFF722FF80B9082303
:109A000086F8E437C6F8E047C6F8DC57022070BD98
:109A1000012070BD29461920FFF712FF0028EED063
:109A2000D6F81828136A002BFCD10A2016F0A8FBE0
:109A3000D6F8203813B11A689B881383FFF73EFAD3
:109A4000032070BD022070BD381A00202DE9F843B4
:109A5000224D95F8E447042C8046894617461E4659
:109A600008D0082C02D00020BDE8F883FFF738F9B1
:109A70000228F8D195F8DA37B3B141461120FFF743
:109A8000DFFEC0B9D5F8B837C5F8C097052285F80C
:109A9000E427C5F8C487C5F8CC77C5F8D067C5F802
:109AA000D4370120BDE8F8834FEA48211120FFF7A1
:109AB000C7FE0028E6D0D5F818381C6A002CFCD167
:109AC0000A2016F05DFBD5F82038002BCBD01A68A1
:109AD0009B8813832046BDE8F88300BF381A002016
:109AE000817899B10C48D0F8E03A102B0FD003EBF5
:109AF000430202444FF0200C013382F8E41A0121A2
:109B000082F8E5CA82F8E61AC0F8E03A7047052103
:109B1000002016F0B9BD00BF381A00202DE9F04131
:109B2000B74C94F8106892B0002E00F0BA8194F807
:109B3000E43704F500675A1E082A00F24E81DFE878
:109B400012F03C007600C1004C013A0163011C0098
:109B50004C0109005BF002F90546002840F006833D
:109B6000D4F8D437D4F8B827FA33934280F032814E
:109B7000FFF7A4F994F8E437DDE75BF0EFF800288D
:109B8000EED0D4F8E0270023012A84F8D83740F239
:109B90001883D4F8DC17013A01310823C4F8E02710
:109BA000C4F8DC1784F8E437A3F10806B6FA86F6A1
:109BB0007609304612B0BDE8F08100210846FFF773
:109BC0003FFED4F818280546136A002BFCD10A2062
:109BD00016F0D6FAD4F8203813B11A689B8813838C
:109BE000012D40F0F7804FF0000840F2AB11082043
:109BF00084F8D987FFF724FE052800F0B8810128F2
:109C000000F06C81D4F81828136A002BFCD10A20CC
:109C100016F0B6FAD4F8203813B11A689B8813836B
:109C200094F8D937002BBDD0022384F8E43794F898
:109C3000D9370021022B0CBF4FF080450D4637204D
:109C4000FFF7FEFD29462920FFF7FAFDD4F8182872
:109C50000546136A002BFCD10A2016F091FAD4F8BD
:109C6000203813B11A689B881383002D40F0B2800E
:109C700094F8D937022B00F0E88184F8DA570021F4
:109C80000920FFF7DDFD002800F076810025D4F8DB
:109C90001828136A002BFCD10A2016F071FAD4F8A8
:109CA000203813B11A689B881383002D00F092802E
:109CB00000210A20FFF7C4FD002840F09181032312
:109CC00084F8E437102103A8FEF7D4FF002840F001
:109CD0008180BDF80D209DF814309DF80C1084F89B
:109CE000EE1752BAA4F8EC279DF80F2084F8EF275E
:109CF0009DF8102084F8F0279DF8112084F8F127B2
:109D00009DF8122084F8F2279DF8132084F8F32799
:109D100003F00F011A099DF8193084F8F8271B0188
:109D20009DF81A20DDF8150084F8F917DBB243EA34
:109D3000121302F00F0200BA03F5FA6384F8FC274D
:109D4000D4F81828C4F8F407A4F8FA37136A002BDB
:109D5000FCD10A2016F014FAD4F8203813B11A688E
:109D60009B88138394F8DA37B3B94FF4007110204D
:109D7000FFF766FDD4F818280546136A002BFCD1BE
:109D80000A2016F0FDF9D4F8203813B11A689B8820
:109D90001383002D7FF4ECAE1A4810F015FB00225F
:109DA0000423A4F81C083046C4F8E02784F8E437FC
:109DB00012B0BDE8F081D4F8C0074FF40071FEF78F
:109DC00059FF012800F0AB80022800F0B080002885
:109DD00000F0178194F8E4375A1ED2B2022A0BD849
:109DE000D4F8B827D4F8D417521AC82A7FF6DCAEB4
:109DF000FFF764F894F8E437042B7FF4D5AED8E687
:109E0000381A002040787D01D4F81828117B136A95
:109E100000294CD05269002A49D094F8A028002A81
:109E200045D0B3FA83F35B09002BD3D002AA0023F9
:109E300003920222CDE904320DF107020992C748CC
:109E4000ADF80830012203A9CDE90733CDE90C3381
:109E5000CDE90E338DF818308DF82C3011930A921D
:109E60008DF8402010F0D4F9D4F818381D6A002D70
:109E7000FCD19DF8073003F01F03052B00F089810A
:109E8000FFF71CF8D4F8CC87B8F1000F6CD0D4F8E9
:109E9000D037D4F8C4172A460120C04794F8E437D5
:109EA00049E6304684F8E46712B0BDE8F081D4F8A2
:109EB000C03794F8C817A94803EB01214FF480720A
:109EC0005AF006FF94F8C8370133DBB284F8C8377C
:109ED000A3F10203B3FA83F35B09A5E702AB049392
:109EE0009E488DF82C50042303A9CDE90788CDE9BD
:109EF0000988CDF80C808DF81880CDF83080059356
:109F000010F086F9D4F81828136A002BFCD19DF8BC
:109F10000B30AB2B04BF022384F8D93774E6D4F896
:109F2000D437D4F8B82764339342BFF453AFD4F88E
:109F30001828136A002BFCD10A2016F021F9D4F856
:109F4000203813B11A689B881383FEF7B7FFD4F843
:109F5000CC574DB10022D4F8D037D4F8C4171046EE
:109F6000A84794F8E437E6E594F8E437E3E5D4F855
:109F7000182884F8D95747E610213846FEF77AFEAC
:109F800000287FF483AE94F80F38DB077FF57EAEB0
:109F900094F80018891100F0928001297FF476AEC0
:109FA00094F80728DFF8B8C192000546D2B216210E
:109FB0000220C0F108038B4228BF0B46C3F1080002
:109FC00002419D40C91A45EA02054FF000001CF805
:109FD000012FEED16B1C9B02C4F8E837354656E6DC
:109FE000D4F81828136A002BFCD10A2016F0C8F800
:109FF000D4F82038002B3FF4BBAD1A689B8813833C
:10A00000B6E5D4F81828136A002BFCD10A2016F004
:10A01000B7F8D4F8203813B11A689B881383D4F8A2
:10A02000CC570423002084F8E43784F8D807002DA7
:10A030003FF4BFADD4F8D037D4F8C027D4F8C41754
:10A04000A84794F8E4375A1EC7E629463A20FFF796
:10A05000F7FB02AB049304230593804601233F489A
:10A060008DF82C3003A9CDE90755CDE909550395A5
:10A070008DF818500C9510F0CBF8D4F818381A6AEF
:10A08000002AFCD1B8F1000F12D11A6A002AFCD1C3
:10A090000A2016F075F8D4F8203813B11A689B8896
:10A0A0001383029B1BBAC3F3807384F8DA37E6E5A7
:10A0B0001A6A002A99D01A6A002AF9D195E794F809
:10A0C000053894F80908DFF89CE003F00F038001DD
:10A0D00001255FFA80FC9D4006200323C0F10802A1
:10A0E0009A4228BF1A46C2F108004CFA00F091408B
:10A0F0009B1A41EA00011EF801CF4FF00000EDD19C
:10A1000094F806E8DFF860804FEA8E1E02315FFAAD
:10A110008EFE4FF00C0C062200E00022C2F1080275
:10A12000624528BF6246C2F108004EFA00F0934033
:10A13000BCEB020C18F801EF43EA0003EDD1013348
:10A140008B40E917A3FB055203FB01226D0A45EA88
:10A15000C255C4F8E857354699E500BF50220020A3
:10A160003F220020412200203E220020D4F818285F
:10A17000136A002BFCD10A2016F002F8D4F820381C
:10A1800013B11A689B881383042384F8E4372E469E
:10A190000FE5D4F8CC57D4F8B827C4F8D427072350
:10A1A00084F8E437002D3FF4FFACD4F8D037D4F86E
:10A1B000C027D4F8C4170120A84794F8E4375A1EE2
:10A1C0000BE616D00423D4F8182884F8E437136A71
:10A1D000002BFCD10A2015F0D3FFD4F82038002B37
:10A1E0003FF4F8AD1A689B88138394F8E4375A1E3D
:10A1F000F3E5FEF775FD02287FF4ECADD4F81838CE
:10A200001A6A002AFCD1E5E7084B10B5D3F8143BD5
:10A2100018440C46807D10F09FFB18B182880368BB
:10A220000CB11A8310BD5A83FCE700BF381A002016
:10A2300010B42A492A4A91F804367BB3D2F8B448BC
:10A24000A04239D0012B29D0D2F8CC48844239D051
:10A25000022B23D0D2F8E448A04235D0032B1DD0E6
:10A26000D2F8FC48A04231D0042B17D0D2F81449C0
:10A27000A0422DD0052B11D0D2F82C49A04229D0D4
:10A28000062B0BD0D2F84449A04225D0072B05D08D
:10A29000D2F85C49844208BF07230ED003F1010CB9
:10A2A00081F804C603EB430102EBC1025DF8044BE5
:10A2B000C2F8B408184670470023DBB218465DF8B0
:10A2C000044B70470123F8E70223F6E70323F4E782
:10A2D0000423F2E70523F0E70623EEE7040000106D
:10A2E000381A002038B5424C8C2303FB004393F806
:10A2F0008B3003B938BD94F8DCC494F8DD349C4548
:10A300000ED003EB430204EBC20292F8E0E40EF13C
:10A31000FF35012D4FEA430246D9BEF1030F3ED06F
:10A320008C2202FB0042A2F87C10EFF311819023F3
:10A3300083F31288B2F87C5092F87E3043EA4503EA
:10A340000025C9B29BB282F87E5081F31188294959
:10A350001A090D7882EA13225A4005B1D2431B0133
:10A360009BB202F00F021A4391F808365BBB8C23B4
:10A3700003FB0044D1F8283AD4F80401012198479E
:10A38000D4F80011B4F888508A8AD4F8FC302A43F3
:10A390008A8258601A6842F001021A6038BD5D1C5A
:10A3A00005F003056545BBD0134404EBC303034428
:10A3B00093F8ED140029B3D08C2303FB0043012252
:10A3C00083F87E20ACE78C2303FB0044D1F8285AA5
:10A3D000D4F88430D4F800115B79086903F0FC03E9
:10A3E00018440421A847D4F800318000988138BD72
:10A3F000381A00200400001043680B4A23F0407311
:10A4000023F4807343F48073436083681A4042F0FE
:10A4100002028260C36A0139CAB223F4700141EAC0
:10A420000251C162704700BFFDF7FFC0704700BF17
:10A430000020FDF7F7BD00BF0120FDF7F3BD00BF11
:10A440000220FDF7EFBD00BF10B1036882881A83B8
:10A45000704700BF30B1036882881B691A4214BF7D
:10A4600001200020704700BF10B1036882885A8322
:10A47000704700BF10B404698269E46841681460E1
:10A480004024D460446900230C31C2E90433C2E99A
:10A490000633C2E90833C2E90A33C2E90C339360D8
:10A4A0009363516084B1C269E0689363C2E9023387
:10A4B000C2E90433C2E90633C2E90833C2E90A3308
:10A4C000C2E90C33C2E900015DF8044B704700BFDC
:10A4D000436800221A60037D1F2B08D9203B2022ED
:10A4E000016802FA03F343F01803CB60704720229F
:10A4F000016802FA03F343F018038B60704700BF52
:10A500000268136A11B1D96901B3143330B49C687D
:10A510001D689169DDB14FF4806088618D601046DF
:10A5200040690C6180B15968D369C9B10A464FF4DA
:10A5300080619A609961224312F0010F14BF0022DA
:10A540004FF400521A621C6130BC704770478D6135
:10A55000054D4FF0FF0C05F888CF00688D60DFE7F0
:10A56000024A9A609961E6E78801002050250020A0
:10A570000168F8B5D1E9042304465568002B49D099
:10A580009861107D5E681F2831D81768202202FA72
:10A5900000F040F01800B8601A7D1F2A32D9186800
:10A5A000203A202303FA02F242F01802C26000238C
:10A5B0002B6033603368896943F0100333602846A9
:10A5C00055F096FF23683046D96955F091FF2B6806
:10A5D000226843F001032B603368526843F00103A3
:10A5E000336093889BB243F003039380F8BD1768F0
:10A5F0002038202202FA00F040F01800F8601A7D9E
:10A600001F2ACCD81868202303FA02F242F018025D
:10A610008260CCE7137D90611F2B1CD8106820222C
:10A6200002FA03F343F01803836000232B602B68C6
:10A63000896943F010032B60284655F059FF2B68B9
:10A64000226843F0010352682B6093889BB243F069
:10A6500002039380F8BD1068203B202202FA03F326
:10A6600043F01803C360E0E72DE9F0417F4D804ED1
:10A6700007463C6897F888806368B888012284F8A8
:10A6800024201A8822F040021204120C1A80228917
:10A69000824223D0198821F038010904AB424FEAE5
:10A6A000114100F0BF80734A934200F0BB80024624
:10A6B000B2F5807FA8BF4FF48072022AB8BF022291
:10A6C000002A92FAA2F2B2FA82F208BF4FF0FF32E9
:10A6D000013A41EAC20292B21A802081397BA27A01
:10A6E0008A420CD01A8822F003021204120C1A803B
:10A6F0001A8892B2002900F092801A80A1721A88FA
:10A7000092B242F040021A80226A9168002900F059
:10A71000A3804FF0000C1432E64652F8100C8E4421
:10A7200000EA060120B1B1F1805F23D0616909B36D
:10A7300052F8140C143200EA060110B1B1F1805F36
:10A7400018D052F80C1C0CF1010C0029E5D1227B29
:10A7500082B1B8F1000F0DD0BCF1010F6FD8BEF17E
:10A76000070F6CD80CEB8C018900226A11440A7B1C
:10A77000002A64D0226A92684FF00008002A53D061
:10A78000B8F1000F02D098F80C2022B1BA6812B1CB
:10A79000116892884A83226AD2F800E0226A5168DE
:10A7A000226A9268501E9AB1BEF1000F23D01EF8A3
:10A7B00001CB1A899207FCD5A3F80CC01A89D207DD
:10A7C000FCD59A8992B209B101F8012B0138EBD27C
:10A7D000236A1B7BE3B9236A1B697BB1236AD7F821
:10A7E00094001B69984701280DD0022806D1002348
:10A7F0002362BDE8F0814FF0FF0CDAE7D4F8208047
:10A80000236A14332362236A9B686BB16368B7E7DA
:10A81000BB68002BDFD01A689B881383DBE742F00C
:10A8200003026AE7420843E7236A1B68DBB1236A35
:10A83000D3E9007222620022C3E9002219E7002155
:10A840003846FFF75DFEBB6813B11A689B885383D7
:10A850003846BDE8F0418BE6227B002A8AD0B8F169
:10A86000000F82D186E72362C3E700BF00380040B3
:10A870000000FFFF003C004038B5D0F8E0102B4B43
:10A8800004465A68D0F8D80071B1131A99420BDC0B
:10A8900094F8D030C4F8D820012B10D0D4F8D4309C
:10A8A0000133C4F8D43038BDD4F8E430C4F8D8202B
:10A8B0000344C4F8DC3094F8D030012BEED1616849
:10A8C000201D04F1E805EFF3118C102383F31288A7
:10A8D00063681B6A0BB3D4F8F0302A461BB1D36906
:10A8E0001432002BFBD10B6A6BB1996839B99342D2
:10A8F00009D0196829B15B6899680029F7D0143329
:10A90000F3E7C3E900055FFA8CFC8CF31188D4F8F7
:10A91000D4300133C4F8D43038BD0D625FFA8CFCFA
:10A920008CF31188FFF7A0FEB8E700BF001000E02D
:10A930002DE9F041826992F8DC30012B8AB005469E
:10A940004CD0023B012B54D892F84C31D2F89C20C9
:10A950002E4C63F07F0313708669D6F8A030D6F8CA
:10A96000108003F1010E0FCCEC46ACE80F00D6F8D6
:10A970009C30CDE9003E0FCCACE80F0094E803001A
:10A9800006F110078CE80300EFF31180102383F326
:10A99000128833691B6A002B2FD0029B6A461BB1B9
:10A9A000D3691432002BFBD1D8F8203073B19968E9
:10A9B00039B993420AD0196829B15B6899680029AE
:10A9C000F7D01433F3E71F60C3F804D0C0B280F3AC
:10A9D0001188AA6911690B6A002BFCD1D2F8A0304A
:10A9E0005A8852BAEA819A8852BA2A82DB885BBABC
:10A9F0006B8201200AB0BDE8F081C8F820D0C0B257
:10AA000080F311883846FFF72FFEE2E700A306081F
:10AA10002DE9F04190F8DC30D0F8A050012B8AB03D
:10AA2000044672D016D8D0F89C304FF0FF321A602E
:10AA30005A609A60DA60D0F8E0300522B3F57A7F88
:10AA4000C0F8F0207CD8032380F8DC3001200AB065
:10AA5000BDE8F081023B012BF8D890F84D31D0F8D9
:10AA60009C20524E63F07F031370D0F8A030D0F8D2
:10AA7000108003F1010E00F110070FCEEC46ACE898
:10AA80000F00D4F89C30CDE9003E0FCEACE80F00AB
:10AA900096E803008CE80300EFF31180102383F3A2
:10AAA000128823691B6A002B73D0029B6A461BB174
:10AAB000D3691432002BFBD1D8F8203073B19968D8
:10AAC00039B993420AD0196829B15B68996800299D
:10AAD000F7D01433F3E71F60C3F804D0C0B280F39B
:10AAE00011882269136A002BFCD16B885BBAA4F829
:10AAF000D030AB885BBAA4F8D230EB8801205BBAC7
:10AB0000A4F8D4300AB0BDE8F08190F84C2190F858
:10AB10004D319B1A5B100133DBB205EB430235F874
:10AB200013305BBAA0F8D03053885BBAA0F8D230AB
:10AB300093885BBAA0F8D43001200AB0BDE8F08158
:10AB400003691A7B72B35B6963B390F898304BB3B7
:10AB500090F84C31D0F89C20C4F8A40063F07F0337
:10AB6000137090F84C1190F84D31D0F8A020104897
:10AB7000C4F804015B1A07330121C4F8FC30D4F88F
:10AB80009C3084F800110A44C4E93D3284F8DC109A
:10AB90005CE7C8F820D0C0B280F311883846FFF7D0
:10ABA00063FD9EE7022384F8DC304FE700A306082C
:10ABB0000180000808B51D200FF0CEFE08B1837992
:10ABC0004BB11E200FF0C8FE08B1837903B108BD58
:10ABD0005523C38008BD5523C380F2E7D3B2012BB0
:10ABE00023D870B502EB4202114C4FEA820E4FF0AF
:10ABF000000C22460EF10805634604E00133152BD4
:10AC000011D012F81CCF6045F8D192F801C08C45E4
:10AC1000F4D15659002EF1D0C3EBC3030EEB8303DE
:10AC20000433E01870BD002070BD0020704700BFE5
:10AC300028A3060810B40C4C002304F61C3C01E0C9
:10AC4000152B0CD003EB430201331CF80210814298
:10AC5000F6D122445DF8044B92F91E0B70474FF079
:10AC6000FF305DF8044B7047381A0020D3B2022B36
:10AC700021D830B502EB4202104D114C4FEA820C44
:10AC80000CF10C0E2A46002304E00133172B10D0E0
:10AC900052F82C4FA042F8D114798C42F5D152F8D9
:10ACA0000E40002CF1D02C2202FB03C30833E8181D
:10ACB00030BD002030BD0020704700BF389E060820
:10ACC00000000140002838D030B51C4D90F804C079
:10ACD000002305F61C3401E0152B2CD003EB4302B6
:10ACE0000133A15C6145F7D12A44046892F91E3B07
:10ACF00090F805E0DAB2022A1DD803EB43031048AE
:10AD000010494FEA830C02460CF10C05002304E0C5
:10AD10000133172B0FD052F82C1F8C42F8D1117928
:10AD20007145F5D151590029F2D02C2202FB03C301
:10AD30000833184430BD002030BD7047381A002059
:10AD4000389E0608000001400348D0F89C300BB143
:10AD50008C301847704700BF880100200348D0F8A6
:10AD6000C0300BB1B0301847704700BF88010020D9
:10AD70000348D0F8E4300BB1D4301847704700BF17
:10AD8000880100200348D0F808310BB1F83018478B
:10AD9000704700BF880100200348D0F82C3113B160
:10ADA00000F58E7018477047880100200348D0F8DE
:10ADB000503113B100F5A07018477047880100208A
:10ADC0000348D0F8743113B100F5B27018477047DA
:10ADD000880100200348D0F8983113B100F5C47001
:10ADE00018477047880100200348D0F8BC3113B1E0
:10ADF00000F5D67018477047880100200348D0F846
:10AE0000E03113B100F5E870184770478801002061
:10AE10000348D0F8043213B100F5FA7018477047B0
:10AE2000880100200348D0F8283213B100F50670DD
:10AE300018477047880100200348D0F84C3213B1FE
:10AE400000F50F7018477047880100200348D0F8BC
:10AE5000703213B100F51870184770478801002050
:10AE60000348D0F8943213B100F5217018477047A9
:10AE7000880100200348D0F8B83213B100F52A70D9
:10AE80001847704788010020094B0A4A013800EB37
:10AE9000C00003EB8000116BD0F88C300648834271
:10AEA0000CBF4FF400134FF480030B431363704740
:10AEB00088010020003802400060024070B501386F
:10AEC0003C4C3D4D00EBC00C04EB8C0C9646DCF882
:10AED0008C603A4AAE420CBF4FF400154FF4800527
:10AEE000166B35431563CCF89C10CCF8A43034496C
:10AEF000DCF890308B424FEAC0023ED001F5806111
:10AF00008B423AD0A1F57A718B4247D001F580612E
:10AF10008B4243D0A1F57A718B4241D001F580611B
:10AF20008B423DD0A1F57A718B4235D001F580611D
:10AF30008B4231D0A1F57A718B4233D001F580611B
:10AF40008B422FD0A1F57A718B422DD001F5806113
:10AF50008B4229D0A1F57A718B4227D001F580610F
:10AF60008B4223D0A1F57A718B4221D0154D01F58A
:10AF700080618B4218BF002500E0134D104404EBA4
:10AF80008003CEF38711C3F8AC5093F8A100BDE85D
:10AF9000704000225AF048B90C4DEFE70C4DEDE738
:10AFA0000C4DEBE70C4DE9E70C4DE7E70C4DE5E701
:10AFB000044DE3E7880100200060024000380240B1
:10AFC00010600240008000282080001000800018DF
:10AFD00000880010008020102080002000880020C1
:10AFE000008020200D4B984214D0A3F58063984236
:10AFF00010D003F5804398420CD003F5806398424B
:10B0000008D003F58063984204D0054BD3F8B0070D
:10B0100040087047024BD3F8B00770470004014066
:10B02000381A0020800AA0F58010522808D8054B55
:10B03000184490F8F4330D2B02D8034AD0567047C9
:10B0400000207047389E0608601E0708094910B5A1
:10B050004B6C094C43F480434B644022002104F5BF
:10B0600019605EF084FE4FF0FF33C4F85C3BC4F817
:10B070005F3B10BD00380240381A00200120FEF767
:10B08000FFBA00BF0220FEF7FBBA00BF0420FEF7A4
:10B09000F7BA00BF0820FEF7F3BA00BF1020FEF792
:10B0A000EFBA00BF4FF47870FEF7EABA4FF47C4075
:10B0B000FEF7E6BA30B50C4683B0054618B3036810
:10B0C00003F13F4303F57E039B0A104A134493F8B0
:10B0D0003C075AF04DF9A988009104F00303C4F32A
:10B0E00081028DF8043028688DF80520C4F3001320
:10B0F0006946C4F341148DF806308DF8074055F0C9
:10B10000C9F803B030BD4FF0FF33DEE7389E0608C4
:10B1100000B1CFE7704700BF2DE9F041CB781BB9F4
:10B1200000263046BDE8F08100F110040D4680464F
:10B13000897820460FF072F906460028F0D0E878AA
:10B140000FF00AFCC8F818002B780133DBB210B1FD
:10B15000C371222383710921FFF7DAFFD8F81800A1
:10B160001A4FFFF771F9D7F8B837632BFBD9184896
:10B170000FF02AF9A8F81400204652F00DFA044600
:10B18000E0B9E8780FF0E8FBD7F8E07A002F064640
:10B19000C6DDDFF8408002E00134BC42C0D004EBE1
:10B1A000440518F805000FF0D7FB8642F4D121467C
:10B1B00008EB05000FF014FC0026B2E7D8F81000E9
:10B1C00088F8D8405BF056FEABE700BF381A002085
:10B1D00040420F001C2500200B4B10B5D3F8143B48
:10B1E00003440446987D0FF0B7FB60B12E228271B4
:10B1F000621CC2710121FFF78BFF20460021BDE8D0
:10B200001040FFF701B810BD381A002070B50E4C81
:10B21000D4F8246A002E15DD04F58164002503E0CE
:10B22000B54204F120040DD0237F0135002BF7D067
:10B23000E0680028F4D0217DFFF73CFFB54204F11F
:10B240002004F1D1012070BD04000010F8B5037D89
:10B2500085691F2B04464DD90168A3F120024E6871
:10B2600020209040064234D010239340C860CB6029
:10B270004B68D340DE0700F18380EFF31183502247
:10B2800082F312882A6C1168C9075AD4516889B2AE
:10B2900071B9D5E90960864250D0AF690744D760DB
:10B2A00073D9301A80B25060AE62002185F8641004
:10B2B000116841F00101DBB2116083F3118895F848
:10B2C0006430002B44D1237D1F2B27D92168A3F1A3
:10B2D00020024C6808209040044200D0C8604C68AE
:10B2E000042000FA02F2224203D0203B00FA03F3CA
:10B2F000CB60F8BD026820201668984006421946C7
:10B300000ED010219940906091601168D940C80713
:10B31000B3D5012101FA03F39360AEE72268194621
:10B32000106808238B40184200D0936010680423F3
:10B3300003FA01F10142DCD09160F8BD012285F8E9
:10B340006420DBB283F3118895F86430002BBAD007
:10B3500095F87C30002BB6D195F871000FF0FCFA0F
:10B360002A6E938923F008031B0401211B0C93818F
:10B3700085F87C100028A6D02021FFF79BFEA2E7CD
:10B38000012303FA02F2CA6077E72E69301A80B20D
:10B390005060A96289E700BF70B503792D4C002B7E
:10B3A00014BF012200228AB084F8102803D184F847
:10B3B000E4370AB070BD054604F6180690F900108F
:10B3C00030460FF02BF8AD78002D37D1224B2348B3
:10B3D000C4F8AC38012284F82428C4F820580EF0B0
:10B3E000F3FF03464FF47A70A4F81C3815F0C4F844
:10B3F000D4F8203813B11A689B881383184D0FCDE9
:10B40000EC46ACE80F000FCDACE80F0095E8030068
:10B410008CE80300694630460EF0FAFED4F818288E
:10B42000136A002BFCD1D4F8B817C4F8D417012242
:10B4300084F8E42784F8D8370AB070BD28460FF0A6
:10B440008BFA05460028C1D01E23C3800921FFF7CF
:10B4500031FEBBE7381A0020F8210020801A0600D0
:10B460007CA5060870B50C4682B015460646002835
:10B4700039D0036803F13F4303F57E039B0A1B4A5F
:10B48000134493F83C0759F073FFB2880092B2FA64
:10B4900082F304F003028DF80420C4F381023068C3
:10B4A0008DF80520C3F11F03C4F30012C4F3411447
:10B4B0008DF80740C3F3CC0400EB840403F00703CA
:10B4C0008DF806209B00226A0F269D4006FA03F3A2
:10B4D00022EA03032362226A15436946256254F077
:10B4E000D9FE02B070BD4FF0FF33C8E7389E0608A2
:10B4F00000B1B7E7704700BF2DE9F043774D05EB8A
:10B50000001683B0D6F8643B002B00F0938004460D
:10B510004FEA001896F86C0B59F02AFF96F86C3B2E
:10B52000590903F01F0203294FF0010303FA02F344
:10B5300000F09880042900F0858002297DD005EB79
:10B540000803013493F8680B0FF006FAE4B2814661
:10B5500010B112238371C47105EB080393F8690BD2
:10B560000FF0FAF9074610B11323C471837105EB8C
:10B57000080393F86A0B0FF0EFF9064610B1142395
:10B58000C47183714544484695F86B2B01924A215A
:10B59000FFF7AEFF019A38462A21FFF7A9FF019A6B
:10B5A0000A213046FFF7A4FFD5F8642B4C4B9A4292
:10B5B0005DD04C4B9A424AD04B4B9A4262D04B4B97
:10B5C0009A426AD04A4B9A4272D04A4B9A427AD0F7
:10B5D00049499088B1F8CE42B1F8CC32B1F8D65290
:10B5E0002343B1F8D0422343B1F8D24220F0030004
:10B5F0002343B1F8D4420004000C2343B1F8D842ED
:10B6000090802B4310882343B1F8DA42B1F8DC1262
:10B6100000F44150234303439BB21380938B23F4E4
:10B6200000631B041B0C9383118213889BB243F0AD
:10B630004003138003B0BDE8F083304A516A0B43E6
:10B6400053627CE72D4A11690B43136177E703F5D9
:10B650000033196A41F480411962196A21F480416A
:10B660001962B5E7254A116A0B43136267E703F5D0
:10B670008433596A41F480515962596A21F48051E6
:10B680005962A5E703F5FE33196A41F400411962D6
:10B69000196A21F4004119629AE703F58233596A65
:10B6A00041F400515962596A21F4005159628FE7FF
:10B6B00003F56843596A41F480115962596A21F4CB
:10B6C0008011596284E703F56443596A41F400111B
:10B6D0005962596A21F40011596279E7381A002039
:10B6E0000030014000380040003C00400034014080
:10B6F0000050014000540140880100200038024001
:10B70000431C00F074812DE9F04F00EB8003BE4F25
:10B71000DA0087B057F8029081000546019107EBE7
:10B72000C303B9F1000F05D09C68002C00F02F81F5
:10B73000A17911B107B0BDE8F08FD3F80CA0BAF130
:10B74000000F00F0A2819AF80630002BF2D11832D7
:10B75000B818D9F80480BB50691CC0E90133C36034
:10B760001523A371C9B21623E1718AF807108AF86C
:10B77000063099F8180059F0FBFDB8F8043022683B
:10B78000A18823F440731B041B0CA8F80430DAF8DA
:10B7900000301183BAF804201A8311212046FFF7E4
:10B7A00089FC11215046FFF785FC09264FF0330B29
:10B7B00005E0BBF1010B00F0158114F0E1FC0A205B
:10B7C000002CF6D02268A18813691942F1D0518368
:10B7D000052014F0D5FC2368A2881A83052014F0F4
:10B7E000CFFC013EE2D1332604E0013E00F030817F
:10B7F00014F0C6FC0A20002CF7D02368A28819692F
:10B800000A42F2D05A83052014F0BAFCBAF1000FB4
:10B8100000F05D81DAF80030BAF804205A83052080
:10B8200014F0AEFC002C00F024812368A2881A8357
:10B83000052014F0A5FCDAF80030BAF804201A83C9
:10B84000052014F09DFC2368A2881B691A4240F071
:10B85000D580019B2B4407EBC3039A7C002A40F060
:10B86000CA801A7C12212046FFF7FCFD019B2B4465
:10B8700007EBC3039B7C002B00F0C4803221BAF19C
:10B88000000F07D0019B2B4407EBC30350465A7CA3
:10B89000FFF7E8FD5D4B984500F028815C4B98452B
:10B8A00000F02F815B4B984500F03681019B2B44C3
:10B8B00007EBC3074FF47A73BC8A03FB04F4B8F8B0
:10B8C000043023F440731B041B0CA8F80430B8F8B0
:10B8D00000309BB243F00103A8F80030B8F80450E0
:10B8E00002A854F021FD25F03F0504994A4B2D0490
:10B8F000A3FB01232D0C45EA9345A8F80450B8F8A2
:10B90000002022F001021204120CA8F80020434A81
:10B91000980C9442034600F383806200B1FBF2F27C
:10B9200092B20133042A38BF0422A8F82030A8F8C4
:10B930001C20B8F800309BB243F00103A8F8003097
:10B94000B8F8003023F4816323F002031B041B0CBE
:10B950004FF4804143F48063A8F80030A8F8081041
:10B96000B8F8003023F080031B041B0C0022A8F859
:10B97000003099F81A00114659F056FC002299F847
:10B980001900114607B0BDE8F04F59F04DBCD3F88F
:10B990000CA0BAF1000F00F0D4809AF80630002B0A
:10B9A0007FF4C8AE1832BB18D9F80480BC50C3E984
:10B9B0000144DC6016238AF806306B1C8AF80730D5
:10B9C00099F8180059F0D4FCB8F80430BAF80420FB
:10B9D00023F440731B041B0CA8F80430DAF8003081
:10B9E0001A83DEE624B9052014F0CAFBF6E6704798
:10B9F000A1882268EBE61A7C322134E7DAF80030BD
:10BA00001B6926E712213AE7381A0020005400404B
:10BA100000580040005C004083DE1B43A08601000C
:10BA200004EB4404B1FBF4F18AB2C1F30B0109B990
:10BA300042F0010250494FF4967300FB03F3A1FB5F
:10BA400003139B09013342F40042A8F820306EE74B
:10BA5000002C40F08D80052014F092FBBAF1000F0D
:10BA600065D0DAF80030BAF804205A83052014F0C3
:10BA700087FB052014F084FBDAF80030BAF80420C4
:10BA80001A83052014F07CFBF0E61832BB18D9F8B5
:10BA9000048047F802A0C3E901AAC3F80CA015234B
:10BAA000A371431CE37199F8180059F061FCB8F8D0
:10BAB0000430A28823F440731B041B0CA8F8043044
:10BAC000236811211A832046FFF7F4FA6DE605205A
:10BAD00014F056FB2368A2881A83052014F050FB4B
:10BAE000052014F04DFB23681B69B2E603F5F23321
:10BAF0001A6A42F400121A621A6A22F400121A62D6
:10BB0000D4E603F5F0331A6A42F480021A621A6A24
:10BB100022F480021A62C9E603F5EE331A6A42F48F
:10BB200000021A621A6A22F400021A62BEE60520B6
:10BB300014F026FB052014F023FB052014F020FB55
:10BB400094E61832BB18D9F8048047F802A0C3E97C
:10BB500001AAC3F80CA099F8180059F009FCB8F82C
:10BB6000043023F440731B041B0CA8F804301CE6BB
:10BB7000A288236846E600BFD34D62102DE9F84342
:10BB800007460FF0BBFFDFF84C8007EB8709044640
:10BB900008EBC90542F20F7604E00FF0AFFF031B7C
:10BBA000B3420ADC6B7E002BF7D108EBC90898F88A
:10BBB000180080F00100BDE8F883B8F8943B013329
:10BBC00038469BB2A8F8943BFFF79AFD0020BDE8E9
:10BBD000F88300BF381A00202DE9F04782B0441CDA
:10BBE0008DF8073050D0022804464DDCDFF8B880CD
:10BBF00000EB800508EBC505D5F804A0BAF1000FED
:10BC000042D06B7E03F0FF07002B3DD10E469146DC
:10BC10000FF074FF71000123C9B2A97685F81B905B
:10BC20006B77AF772B776B762F76BAF804200DF110
:10BC300007039105C5E9083306461DD4BAF800305C
:10BC4000DA0512D442F20F7504E00FF057FF831BA0
:10BC5000AB421EDCBAF800309B05F6D4BAF80030CF
:10BC60009BB243F48073AAF80030BAF804309BB258
:10BC700043F44073AAF804302046FFF77FFF0746DD
:10BC8000384602B0BDE8F0870027384602B0BDE86C
:10BC9000F087B8F8943B01339BB22046A8F8943B58
:10BCA000FFF72EFDF1E700BF381A002070B500EB5A
:10BCB0008003274D05EBC30255F833305C68A38A37
:10BCC00084B09BB20393039B13F4706F1CBF0123DA
:10BCD0001376039B13F4E06F4FEA80060CD1A38A1E
:10BCE000304423F4706305EBC0051B041B0C0022D9
:10BCF000A3826A7604B070BD238BA38823F480638B
:10BD00001B041B0CA380039B9A05E8D423889B0586
:10BD1000E5D42388D9050FD52388DA05FCD42388F8
:10BD20009BB243F40073238023889B05FCD40190CD
:10BD3000FFF7E6FC0198D2E723889BB243F4007337
:10BD40002380A38823F440731B041B0CA380C6E745
:10BD5000381A00200020A9E70120A7E70220A5E764
:10BD60002DE9F84F2F4F00EB800407EBC404D4F803
:10BD70000480B8F1000F04D09A46637E03F0FF09F7
:10BD800023B14FF000094846BDE8F88F0E469346B0
:10BD900005460FF0B3FE0A9B7600F6B2C4E90833FD
:10BDA0000123A67684F81BB084F81D90A37784F84D
:10BDB0001CA0637684F81890B8F804209105064614
:10BDC00022D4B8F80030DA0512D442F20F7404E03D
:10BDD0000FF094FE831BA3421ADCB8F800309B05D9
:10BDE000F6D4B8F800309BB243F48073A8F8003062
:10BDF000B8F804309BB24FF0010943F44073A8F83F
:10BE000004304846BDE8F88F99464846BDE8F88FAB
:10BE1000B7F8943B01339BB22846A7F8943BFFF751
:10BE20006FFCB0E7381A0020F8B590F871301C09A3
:10BE3000013C052C0FD81B4E06EB44020546B2F818
:10BE40006C0703F00F0340FA03F2D20703D595F80D
:10BE50007C70012F01D00120F8BD07FA03F3013BEC
:10BE6000184034445CF046F894F878270E4C10449F
:10BE700054F8302004EBC0041069A3881840EBD0BC
:10BE8000EB6E002285F87C2093F8212020460221C9
:10BE9000FFF7E8FA2A6E93899BB243F0080338460D
:10BEA0009381F8BD389E0608D0250020094BD3F8B1
:10BEB000982ED3F89C1E40F22A40002350604B621B
:10BEC0000B889BB243F001030B80136843F001031E
:10BED00013607047381A00201D4B1E48196C1E4A0B
:10BEE00010B441F080510124196404625321FF24ED
:10BEF000CA205462506251625B6FDB0085B017D478
:10BF000016480423002102910290029A1A440292D8
:10BF1000029A04331C2B1160F5D103910390039B0B
:10BF20000393039B0E4A1A6005B05DF8044B7047FB
:10BF30000A4B002201920193019B0193019A084B45
:10BF400012689A42DCD105B05DF8044B704700BF1F
:10BF50000038024000000E420028004050280040F7
:10BF60003166654210B5174C84B00139002389B29F
:10BF7000A042ADF80C30ADF806308DF80E300291CD
:10BF800013D0114B984210D003F5804398420CD047
:10BF900003F58063984208D003F58063984204D08B
:10BFA0000A4BD3F8B0375B0802E0084BD3F8B03740
:10BFB000B3FBF2F201A9013AADF8042054F0B2FB50
:10BFC00004B010BD0004014000000140381A0020F8
:10BFD00030B50446006EA268838923F400531B0425
:10BFE0001B0C8381637995B013F0040F4FF00001AF
:10BFF000019214BF4FF480520A46ADF808201A038C
:10C000001B0203F48063ADF80C302379ADF80E10F9
:10C0100002F40052ADF80A20DA0744BF0422ADF85A
:10C020000E209B07ADF8101005D5BDF80E3043F07B
:10C030000803ADF80E3001A954F012FB6279236EAB
:10C04000D50700F18B8012F0080F9A8A48D092B27F
:10C0500042F008029A829A8992B242F400529A817E
:10C060002279D00732D5E06B002800F089800023C8
:10C07000E26D0893CDE90C33CDE91033CDE91233ED
:10C080004FF480750A936369E1680E9506920793F1
:10C09000626C05924FF480634FF480350B930991E5
:10C0A0000F9554F08FF905A9E06B54F021FAE26B7B
:10C0B000216E136843F0010313608B8A9BB243F037
:10C0C00040038B82536822799BB2636591070DD43C
:10C0D000226E93899BB243F40053938115B030BD17
:10C0E00022F008021204120C9A82B4E7206C002895
:10C0F00052D02369A26D0993A36CCDE90532402388
:10C1000000254FF4803108934FF480630B930F9117
:10C11000CDE90C55CDE91055CDE9125507950A9595
:10C120000E9554F04FF9206C05A954F0E1F9236CF9
:10C13000226E586940F080005861186840F016007F
:10C1400018605D60938A9BB243F0800302F10C019A
:10C1500093820B6843F040030B60BAE71E498B42A1
:10C1600024D0A1F54C418B421ED001F580618B4259
:10C170001ED102200121FEF747F86279236E62E7A3
:10C180004FF6DF711980D96841F02001D960D96874
:10C1900041F01001D96099E7226ED36843F0800323
:10C1A00002F10C01D360D4E70120E3E70020E1E7CE
:10C1B00001F580618B420AD001F580618B4208D085
:10C1C00001F544418B427FF43EAF0520D2E70320C6
:10C1D000D0E70420CEE700BF001001402DE9F84F62
:10C1E0004F4C04EB8004D4F82C4A002C00F08180E2
:10C1F000E56E002D79D01F46EB6A6361AB6AA361DF
:10C200006B8EE3602B8E23616B682366454B236046
:10C21000454BA160A3660646204690460EF034FFCB
:10C2200094F871000EF098FB814695F8200094F880
:10C2300070B0A24600284FD102213B0784F87C1041
:10C2400037D418F0020F11D0B9F1000F0ED00B2324
:10C2500089F806303A0606F1010389F807304AD416
:10C2600095F8212048462221FFF7FCF818F0010F2D
:10C2700004D1E26B9AB15046BDE8F88F58460EF0F3
:10C280006BFB0028F5D00C220136C671827195F83F
:10C2900021202221FFF7E6F8E26B002AEBD195F886
:10C2A000241095F82200890958F0BEFF5046BDE8D9
:10C2B000F88F0136F6B2B9F1000FDAD00B23780609
:10C2C00089F8076089F8063009D595F821204221C0
:10C2D0004846FFF7C7F8CCE759F04AF8ACE7FB0649
:10C2E00095F82120F4D41221F2E7AA465046BDE881
:10C2F000F88FA246BFE794F871000EF02DFB226E76
:10C30000938923F008031B0401211B0C938184F8FB
:10C310007C100028AAD02021FEF7CCFEA6E700BFA3
:10C3200004000010B8A5060829BE0008BFF34F8F0F
:10C330000549064BCA6802F4E0621343CB60BFF3C1
:10C340004F8F00BFFDE700BF00ED00E00400FA05DD
:10C3500008B572B6FFF7EAFF00B583B00D490022B9
:10C3600000920091009B0C330093009B1B68012BF3
:10C3700002D003B05DF804FB01920191019B0649D4
:10C380000C330193019B1A600B6883F308884B6898
:10C390009847FEE7502800400000FF1F38B5FFF720
:10C3A0009BFDFFF7D9FF012054F0E0F8714A936834
:10C3B00023F003039360936813F00C0FFBD1136811
:10C3C0006C49002842D143F00103136041F28833E5
:10C3D0000A6895075DD4013BFAD1674C674D654B00
:10C3E000674AEA60596F674AC4F8B81EAA60596B79
:10C3F000654821F080015963596F41F08071596798
:10C40000196B41F4CE0119635A6B5A639A6B9A63A4
:10C410001A6C02431A64596C5C4A0A435A640FF05E
:10C4200025FBD4F8B0375A4AA2FB03239B09013BF2
:10C43000B3F1807F09D24FF0E022F0205361002158
:10C44000072385F823009161136138BD43F48033DD
:10C4500013600A68940341F2883304D4013BBCD0D2
:10C460000A689403FAD5444C4A4A4B4BB0FBF3F3A9
:10C47000B0FBF2F0B3EB400F18BF18464FF4800248
:10C48000B3FBF0F3C4F8B42EC4F8A00EC4F8A43E75
:10C4900009E0394C002108220223C4F8B41EC4F874
:10C4A000A02EC4F8A43E022054F060F803280FD850
:10C4B0003A4BD4F8A41E03EBC0008588C288438899
:10C4C000C4F8AC5EB3FBF1F3C4F8B02EC4F8A83ED8
:10C4D000284B33491A6C42F080521A640A6842F4BD
:10C4E00040420A609A689A609A6842F400429A60F0
:10C4F0009A6842F4A0529A60D4F8B40ED4F8A02EF0
:10C50000D4F8A81E024342EA8112D4F8AC1ED4F833
:10C51000B00E490842EA0062013942EA01425A601B
:10C520001A6842F080721A601A689201FCD51D4A9E
:10C5300040F205711160996821F0030199609968D2
:10C5400041F00201A2F580629960936803F00C0348
:10C55000082BFAD1D4F8A40E1349D823B3FBF0F377
:10C560009B0143F000530120C2F884308866FCF739
:10C5700047FA33E700380240381A002000ED00E0A7
:10C580000005FA0500000020FFC9FE36335F0700F2
:10C59000D34D621080841E0040420F00E8A50608BB
:10C5A00000700040003C02400000474210B584B0DB
:10C5B00000230446ADF80C300068ADF806308DF865
:10C5C0000E3003F18043013903F5823389B298427A
:10C5D000029114D0A3F58063984210D003F58043F4
:10C5E00098420CD003F58063984208D003F580632D
:10C5F000984204D0204BD3F8B0375B0802E01E4BC2
:10C60000D3F8B037B3FBF2F301A9013BADF8043026
:10C6100054F088F82168194A0B8819489BB243F0F6
:10C6200001030B80002301E050F83320914208D031
:10C6300001330E2BF8D1002004B0BDE81040FCF708
:10C6400023B9104A02EBC30393F8D5472046FCF701
:10C650001BF91B2C05D1192004B0BDE81040FCF7D4
:10C6600013B92E2C08BF2C2004D104B0BDE8104013
:10C67000FCF70AB904B010BD381A002000000140D0
:10C6800008A60608389E060870B50468A30AA3F534
:10C690008013522B51D83C4D2B4493F8F4530D2D5D
:10C6A0004BD840798608002954D005EB850305EB6B
:10C6B0004303B4F80CE04FEA900C33440220334EAD
:10C6C00000FA0CF040EA0E0006EB830C80B2CCF8C6
:10C6D0004815CCF85825A081EFF3118C502383F333
:10C6E00012882C2305FB03F3F118D1F8442562B31B
:10C6F000274BC1F86825043226482C2105FB01F19F
:10C70000084414310B4453F8041B19B1116053F859
:10C71000042C04329842F6D100235FFA8CFC13609B
:10C720008CF311882C2303FB0565D5F868352BB1F4
:10C73000A3899BB243F00103A38170BDA38923F0B9
:10C7400001031B041B0CA38170BD03F12402104BD9
:10C750001A44D1E7B4F80CC005EB8503304605EB6D
:10C7600043034FF0020E33441FFA8CFC074E0EFABF
:10C7700000F02CEA0000A08106EB8300C0F8481509
:10C78000C0F85825A8E700BF389E0608381A0020D0
:10C790007C1F0020A01F002001490248FCF78EBF2B
:10C7A0007C1F00200000014010B5064C064804F232
:10C7B0004451FCF783FF04F5DA610448BDE81040FA
:10C7C000FCF77CBF381A0020000001400044014003
:10C7D00002494FF08040FCF771BF00BFA81F002046
:10C7E00001490248FCF76ABFD41F00200004004042
:10C7F00001490248FCF762BF002000200008004009
:10C8000001490248FCF75ABF2C200020000C0040D0
:10C8100001490248FCF752BFB0200020000401404B
:10C8200010B5064C064804F5CF61FCF747FF04F24B
:10C8300054710448BDE81040FCF740BF381A00208E
:10C8400000040140001C004001490248FCF736BFCB
:10C85000DC2000200040014001490248FCF72EBFC7
:10C86000342100200048014001490248FCF726BF5E
:10C87000602100200018004001490248FCF71EBF5B
:10C88000B821002000200040F8B5164D1648174F7B
:10C8900000214FF41A725DF06AFA05F688064FF02F
:10C8A0008041A5F18C043A46002301E054F833207E
:10C8B00091420BD001330E2BF8D100201C3558F0DB
:10C8C00057FDB5420CD055F81C1CECE7084A02EBAA
:10C8D000C3031C3593F8D40758F04AFDB542F2D192
:10C8E000F8BD00BF94A606087C1F00200000014090
:10C8F000389E060810B50C2937D8DFE801F09736C6
:10C90000363666363636373636360700038C548868
:10C91000B2F80CE023F480531B041B0C0384038C3B
:10C92000B0F804C0818B21F4E6414EEA040E0904FC
:10C93000148823F40053090C41EA04211B04754CAC
:10C940001B0C43EA0E33A0421FFA8CFC9BB289B247
:10C9500000F0AE8004F58064A04200F0A9809268E7
:10C96000A0F804C081830264038410BD038CB2F874
:10C970000CC0548823F480731B041B0C0384038CA9
:10C98000B0F804E0818B23F400731B044CEA040C20
:10C9900021F073011B0C43EA0C230904B2F800C018
:10C9A000090C41EA0C0C5B4988421FFA8EFE9BB2CF
:10C9B00068D001F58061884264D09268A0F804E0F4
:10C9C000A0F81CC0C263038410BD038CB2F80CC075
:10C9D000548823F010031B041B0C0384038CB0F851
:10C9E00004E0018B23F020031B044CEA040C21F427
:10C9F000E6411B0C43EA0C130904B2F800C0090C11
:10CA000041EA0C211FFA81FC424988421FFA8EFE3E
:10CA10009BB269D001F58061884265D09268A0F828
:10CA200004E0A0F818C08263038410BD038C54880E
:10CA3000B2F80CE023F001031B041B0C0384038CED
:10CA4000B0F804C0018B21F073014EEA040E090412
:10CA5000148823F00203090C1B0421432D4C1B0CEA
:10CA600043EA0E03A0421FFA8CFC9BB228D004F5C7
:10CA70008064A04224D09268A0F804C0018342637D
:10CA8000038410BDD189548A23F4006343EA012151
:10CA9000138A2EF4405E23434EEA031E94884FF619
:10CAA000FF330B4043EA04231FFA8EFE9BB284E758
:10CAB000148A2CF4804C4CEA841C1FFA8CFC4EE740
:10CAC000D489B2F810E023F008032343548A2CF4ED
:10CAD000407C4EEA040E948823F004034CEA0E0CCA
:10CAE0001FFA8CFC2343C6E7D189548A23F08003C4
:10CAF00043EA0111138A2EF4406E23434EEA830E5B
:10CB000094884FF6BF730B4043EA04131FFA8EFE5E
:10CB10009BB283E7000001402DE9F04FA24BDFF804
:10CB2000A49293F8CE3EA14EA14F8FB0CDE901392A
:10CB3000013BDBB200930025DFF88CB2DFF88CA25A
:10CB40005B46D3469A464FEA9A23A3F58013522BAD
:10CB50004CD8334493F8F4330D2B47D8FC56019B43
:10CB6000012B40F00181012C35D14FF000084146E6
:10CB7000204614F0C3F814F04FF9037813B1542B86
:10CB800040F0F98008F104081FFA88F8B8F1100F96
:10CB9000EDD14FF0000E8DB3494600200CE0334438
:10CBA00093F8F4330D2B0ED8FB56A3420ED0013070
:10CBB000A84201F580711EDA8A6813689B0AA3F502
:10CBC0008013522BEBD90023A342F0D153799BF869
:10CBD00005209A42EBD1774B5B454BD05BF81CAFFD
:10CBE0004FEA9A23A3F58013522BB2D9009B012B55
:10CBF000F1D90024B9E7BEF1000FECD15846FBF79C
:10CC0000C1FBC3B2022B9BF805C000F23483431C66
:10CC10005BB203EB43034FEA830E644B664903F5B3
:10CC2000727004E0984200F0268353F82C1F51459F
:10CC3000F8D11A796245F5D153F80E40002CF1D0A5
:10CC40005E4800234268A24203F1010300F089809C
:10CC5000102B00F12400F5D14FF0FF33584A03EBBD
:10CC6000C30302EB830393F8A830002BB3D1029BDC
:10CC7000C3F808B0029B013503F58073042D0293BD
:10CC80007FF45AAFDFF848B10BF59E730027ABF580
:10CC9000816A9846DAF8243ABB425FDDDBF80C5033
:10CCA000002D5BD09BF81030A88802932B68DAF82F
:10CCB0000460019303F13F41B0FA80F301F57E0176
:10CCC0000393002EC3F11F034FEA9121009340F319
:10CCD0008480002302E00133B3427BD01C0259F868
:10CCE00004208A42F7D14C440099029B8BF8103003
:10CCF00003260137CBF80410CBF80C50CBF81840C2
:10CD0000AE71EF71636CE26C0D4649008E401E43BC
:10CD1000012303FA01F111439AF800206664E164EB
:10CD20007AB303FA05F11A46236D0B432365019B81
:10CD300089B21883D4F8A000FBF760FB2046FBF70C
:10CD4000B3FC0123082F8BF81C308BF81D3088F8BA
:10CD500011300BF1200B08F118089BD10FB0BDE882
:10CD6000F08FDBB2013B79E7022B7FF4FEAE082C9B
:10CD70003FF4FBAE2FE74FF0010E002D7FF40CAF18
:10CD800029E70399C1F12F05009903FA05F58B40B6
:10CD900099B2236D2B432365019B5883D4F8A000DF
:10CDA000FBF72CFBCAE700BF381A0020389E0608A4
:10CDB000601E0708E0AF06080000014014020020D2
:10CDC000880100200C0000100004014000AF06089C
:10CDD0000C040010032B00F31F820AEB062332021F
:10CDE00018690492002800F03F8299600131CAB2AC
:10CDF00083F805210692542283F804210136026843
:10CE000005924479CAF80460FBF7BCFA934AC3B2AE
:10CE1000022B92F8E5EE844600F22D82461C76B293
:10CE200006EB46068E498F48059AB600002305E0BA
:10CE30000133172B00F01F8251F82C0F8242F7D1DB
:10CE40000879A042F4D188590028F1D02C2101FBA7
:10CE500003F30CEB4C0C03EB8C0C814B6344196912
:10CE6000049B5344C3E906017F4B00211E461C4628
:10CE70006368984216D00131102904F12404F7D1D7
:10CE80007A4B93F88420002A00F0E7817849794AA8
:10CE9000794BCAF8681ACAF8602ACAF8703A0FB013
:10CEA000BDE8F08F01F1010C5FFA8CFC6F4B079627
:10CEB0000CF1FF3C0CEBCC0C03EB8C0C9CF8A83079
:10CEC0000593002BE2D1049E069B8CF8A930F31148
:10CED00003EB262000EB001368488C2400EB830052
:10CEE0003112674B04FB01F103EB41010AEB06032E
:10CEF000C3E93C145421019E8CF8A8103321C3F8D7
:10CF0000AC10DE60C3F8A8005E4B04999A4209EBAE
:10CF1000010400F07681534B9A4200F0728103F5D0
:10CF200080439A4200F06D8103F580639A4200F0DD
:10CF3000688103F580639A4200F06381474BD3F820
:10CF4000B007BEF1060F4FEA500000F061814E4B72
:10CF50004E49BEF1070F18BF9C464D4B08BF8C468B
:10CF60004C4918BF1946B0FBF1F1B0FBFCFC104670
:10CF7000049A01390AEB020389B20CF1FF3CA3F8D1
:10CF8000B0C0A3F868104FF000060193A16500231C
:10CF900002F154014944A4F85C60636553F0C2FB9C
:10CFA000019B3D4A1B690193186803889BB243F0BB
:10CFB00080030380038809920A210B914FF4807249
:10CFC000022123F00103CDE90C121B04ADF8286007
:10CFD0001B0C019E0380717909AAFFF78BFC307945
:10CFE000002840F02281049B079E0AEB03020023E5
:10CFF0001069D2F818C001680A8892B242F00102A2
:10D000000A807268944503F1010300F00A81102B35
:10D0100006F12406F5D14FF0FF33144A1F4E03EBFF
:10D02000C30302EB83031E4AD3F88C30B3420CBF18
:10D030004FF400134FF48003166B334313634279AC
:10D0400018480C2A9BBF184B03EB42030026B3F889
:10D05000CC60049B53449E8200232EE0381A0020AB
:10D06000389E0608000001401402002088010020BC
:10D070000D7601080976010815760108202900209F
:10D08000502C002000040140449508001055220057
:10D09000D0DD060040771B00600001000060024008
:10D0A000003802401406001030AF0608914200F02C
:10D0B000E0800133042B00F0E18050F83320002A97
:10D0C000F4D1DAF80C260132CAF80C260AEBC302B6
:10D0D000DB00C2F8101603446A499A880598164383
:10D0E0009E80049B0AEB030690222346FDF7E6FE92
:10D0F000B0690268002342F010020260C4E92533DF
:10D10000A367C4F88830C4F89C30F26962664FF4B3
:10D110008062E26704214FF40032C4E923214022F7
:10D120002267D6F8AC206267F268049B1832A266C8
:10D130004FF48052C4F88020D6F8A820E26603F1AC
:10D1400064014FF480424944C4F8842053F0D0F97C
:10D15000B069049BD0F800E0C4F81CE0D0F814E0FB
:10D16000C4F820E0D0F804E0C4F824E003F1AC01F6
:10D17000D0F808E0C4F828E00023D0F80CE0C4F8A8
:10D180002CE0C4E93733C4F8B830C4F8C030C4F870
:10D19000D030C4F8E430F369C4F8AC304FF48063A5
:10D1A000C4F8C4304FF4403C0423C4E935C3D6F876
:10D1B000F430C4F8BC30F3681033C4F8B0304FF426
:10D1C0000063C4F8C830D6F8F030C4F8B4304FF477
:10D1D0008042C4F8CC20494453F08AF9B369A88846
:10D1E0001A6822635A6962635A68A2639A68E263A2
:10D1F000DA6822641A6842F010021A602B68019300
:10D2000072E5214BBEF1060FD3F8B0077FF49FAE55
:10D21000DFF87CC01D49A6E61B4A032382F8E43EE2
:10D2200034E6DBB20593013BF7E60DF095FB069083
:10D2300038B1019B0221DA79FEF714F9069B5422DA
:10D24000DA80019B1A68B2F844306FEA43436FEA10
:10D2500053439BB2A2F84430C5E6542283F884209D
:10D26000069A83F8852011E6074A022382F8E43EF5
:10D270000CE6DB002FE700235B68FFDE00239B88C2
:10D28000FFDE00BF45840008381A0020A0BB0D0057
:10D29000882A11000C2911D8DFE801F023101010A2
:10D2A00019101010111010100700838B23F4006365
:10D2B0001B041B0C43EA022292B282837047838BC9
:10D2C00023F008031B041B0C1A4382837047038B53
:10D2D00023F400631B041B0C43EA022292B2028374
:10D2E0007047038B23F008031B041B0C1A430283B3
:10D2F000704700BF2DE9F04FDFF870B29BF8004097
:10D3000087B024B90124204607B0BDE8F08F934EC2
:10D31000D6F8B8570EF01EFC9BF8B43A0390002BD9
:10D3200000F058828E4AA2FB05328E4B5209A3FBB5
:10D330000213DB0803EB8303A2EB4303DAB204928C
:10D340000BF23C6202EB830300930BF61C1306F115
:10D35000DC0401934FF00009924635E03B680293EC
:10D36000009B5C330093019B30461433019353F0D0
:10D3700029F87A4B02988C2202FB0933002583F8A6
:10D38000D05079792A46FFF785FF22467979FFF751
:10D39000B1FA79790822FFF77DFF402344F83C3C3D
:10D3A000A4F14801304653F0A3F8336843F010036A
:10D3B00033609BF8B43A09F1010999450AF15C0A16
:10D3C00004F18C0480F2D480DBF83836039AD31A47
:10D3D00004D454F8082C9342C0F2AB815F4B54F84C
:10D3E000587C266A8C2202FB093393F8D030002B3C
:10D3F000B4D03968736834F8542C02911FFA83FE54
:10D400008B89CEF1160E9BB223EA0203BEF1070F01
:10D410008B81A5D9DBF824390133CBF82439A36AF1
:10D4200005939C4600225CF8045B012190461BE0BA
:10D43000DCF80000B8F1140FA0EB05031DDC13F1BC
:10D44000080548BF03F117052B1108EB2518054601
:10D45000581E013102FA03F3012282408E4542EA4E
:10D4600003020CF1040C08D38E45E1D8C8F1150372
:10D47000DCF800504FF01508EAE7B8F1150F60D15D
:10D480003948C2F38423C2F3441100EB830300EB59
:10D490008101D3F8E830D1F8E8101B0243EA011308
:10D4A00002F01F0100EB8101C2F3C43200EB8202E3
:10D4B000D1F8E810D2F8E8200B4343EA023383EABC
:10D4C000132282EA121202F00F020F2A39D1C3F39B
:10D4D0000F134FF6FF72934233D0B3F5606F00F035
:10D4E0003681019A93819AF85820049DAA4211D05E
:10D4F0000098DAF800208168521ACAF80020016BFF
:10D50000DAF80420521ACAF804200022826002636A
:10D510008AF85850DAF8002000990132CAF8002041
:10D520008A6801328A604FF6FF7293427FF418AF27
:10D53000DAF804300133CAF804300B6B01330B63A3
:10D540000EE7DBF820390133CBF82039B9F1000FB1
:10D5500000F0E5804FF6FF73C5E700BF381A0020E2
:10D560001F85EB51CDCCCCCC30AF060804000010A9
:10D5700001228BF8202ACBF83856002B3FF4C2AE9C
:10D58000974890F88C10890700F1BE80D0F884107D
:10D59000086849798A40018C92B289B221EA020175
:10D5A0000184018C89B20A43012B02843FF4AAAEA4
:10D5B0008B4991F81821970700F1C080D1F810210C
:10D5C00010685479018C012289B2A24092B221EAFA
:10D5D00002010184018C89B20A43022B02843FF4C8
:10D5E00091AE7F4991F8A421960700F1C180D1F84E
:10D5F0009C2110685479018C012289B2A24092B218
:10D6000021EA02010184018C89B20A43032B0284BE
:10D610003FF478AE724991F83022950700F1B1805D
:10D62000D1F8282210685479018C012289B2A240D5
:10D6300092B221EA02010184018C89B20A43042BCF
:10D6400002843FF45FAE664991F8BC22940700F172
:10D65000A180D1F8B42210685479018C012289B2DA
:10D66000A24092B221EA02010184018C89B20A43EC
:10D67000052B02843FF446AE594991F848239007A0
:10D6800000F19180D1F8402310685479018C012277
:10D6900089B2A24092B221EA02010184018C89B2CE
:10D6A0000A43062B02843FF42DAE4D4991F8D42352
:10D6B000920700F18180D1F8CC2310685479018C55
:10D6C000012289B2A24092B221EA02010184018CB6
:10D6D00089B20A43082B02847FF414AE404A92F8C0
:10D6E00060349B0771D5D2F858240423116850790F
:10D6F0000A8C83409BB292B222EA03020A840A8C0B
:10D7000092B213430B84FDE5354AD2F884201068A9
:10D710005479018C0422A24089B292B23EE7059965
:10D72000304858225CF0C0FA3B6802934FF6FF7312
:10D73000D9E60024204607B0BDE8F08F284AD2F889
:10D74000102110685479018C042289B23DE72449E4
:10D7500091F8DD2402EB420201EBC2024A4492F846
:10D76000ED240D2A7FF4BDAE019980228A77BAE6B6
:10D770001B4AD2F89C2110685479018C042289B28A
:10D780003CE7174AD2F8282210685479018C042209
:10D7900089B24CE7124AD2F8B42210685479018C4D
:10D7A000042289B25CE70E4AD2F84023106854790B
:10D7B000018C042289B26CE7094AD2F8CC231068A4
:10D7C0005479018C042289B27CE7054BD3F85824A4
:10D7D00001238BE701228BF8202ACBF8383692E51B
:10D7E000381A0020CC0900102DE9F04F002299B022
:10D7F0002F21074613F066FB00B3BE4ED0F8008021
:10D80000C6F89C8E0446FDF75DFA0246B0B1D0F82A
:10D8100004C0C6F898CEBCF1000F0FD0B64D00235F
:10D8200029464868844501F1240103F101030FD022
:10D83000102BF6D1B14B93F8840018B1002019B029
:10D84000BDE8F08F2F2283F8842083F88500F6E767
:10D85000DBB2DFF8A892013B03EBC30309EB8303C0
:10D8600093F8A8A0BAF1000FE8D138469768DFF81E
:10D87000C0B22F22A3F8A8200DF06EF82F22034685
:10D88000CBF8840520B1DA80E2792A21FDF7EAFDA0
:10D890009B4A9C49002301E051F83320904500F059
:10D8A000228101330E2BF7D1002057F061FDD6F80D
:10D8B0009C0E954A038823F001031B041B0C904225
:10D8C000038000F070818E4B984216D003F58043A0
:10D8D000984212D003F5806398420ED003F580631E
:10D8E0009842D6F8B0270AD08849B1EB520F4FEAD8
:10D8F000520340F2528100210AE0D6F8B027834B50
:10D900009A4280F017814FF0010C0021B2FBFCF32A
:10D910007F4AADF804101B0A7E49A2FB03231A09B3
:10D92000A1FB021252084FF000081B09ABF8822538
:10D9300001A952000293ABF88025ADF80C80ADF838
:10D9400006808DF80E8052F0EDFECDE90688CDF808
